:100000000C9458000C9480000C9480000C94800098
:100010000C9480000C9480000C9480000C94800060
:100020000C9480000C9480000C9480000C94800050
:100030000C9480000C9480000C9480000C94800040
:100040000C9488030C9480000C94F8030C94D20355
:100050000C9480000C9480000C9480000C94800020
:100060000C942A040C948000000000002500280055
:100070002B00040404040404040402020202020229
:10008000030303030303010204081020408001025C
:1000900004081020010204081020000000080002DB
:1000A00001000003040700000000000000004905F3
:1000B00011241FBECFEFD8E0DEBFCDBF12E0A0E01D
:1000C000B1E0EAEFFEE002C005900D92A23FB10759
:1000D000D9F724E0A2EFB2E001C01D92AE35B2071D
:1000E000E1F710E0C8E5D0E004C02197FE010E94CE
:1000F0007507C735D107C9F70E9482050C947B07A5
:100100000C94000090E0FC01E656FF4F2491FC01A6
:10011000EA57FF4F3491FC01EE58FF4FE491EE2374
:10012000C9F0222339F0233001F1A8F4213019F16C
:10013000223029F1F0E0EE0FFF1FE859FF4FA591A3
:10014000B4918FB7F894EC91611126C030953E239D
:100150003C938FBF08952730A9F02830C9F0243090
:1001600049F7809180008F7D03C0809180008F7758
:1001700080938000DFCF84B58F7784BDDBCF84B5DB
:100180008F7DFBCF8091B0008F778093B000D2CF6E
:100190008091B0008F7DF9CF3E2BDACF3FB7F89436
:1001A0008091B1039091B203A091B303B091B403D5
:1001B00026B5A89B05C02F3F19F00196A11DB11DC2
:1001C0003FBFBA2FA92F982F8827BC01CD01620FFE
:1001D000711D811D911D42E0660F771F881F991FB9
:1001E0004A95D1F7089508950895AF92BF92CF929E
:1001F000DF92EF92FF920F931F93CF93DF936C01E7
:100200007B018B01040F151FEB015E01AE18BF08C7
:10021000C017D10759F06991D601ED91FC91019079
:10022000F081E02DC6010995892B79F7C501DF9191
:10023000CF911F910F91FF90EF90DF90CF90BF90E3
:10024000AF900895FC01538D448D252F30E0842F0D
:1002500090E0821B930B541710F0CF9608950197EE
:100260000895FC01918D828D981761F0A28DAE0FDB
:10027000BF2FB11D5D968C91928D9F5F9F73928F62
:1002800090E008958FEF9FEF0895FC01918D828D8E
:10029000981731F0828DE80FF11D858D90E008955B
:1002A0008FEF9FEF0895FC01918D228D892F90E0B3
:1002B000805C9F4F821B91098F739927089585EB6E
:1002C00093E00E94530121E0892B09F420E0822F62
:1002D000089580E090E0892B29F00E945F01811150
:1002E0000C9400000895FC01A48DA80FB92FB11D36
:1002F000A35ABF4F2C91848D90E001968F7399275C
:10030000848FA689B7892C93A089B1898C91837039
:1003100080648C93938D848D981306C00288F38932
:10032000E02D80818F7D80830895EF92FF920F935F
:100330001F93CF93DF93EC0181E0888F9B8D8C8D91
:1003400098131AC0E889F989808185FF15C09FB785
:10035000F894EE89FF896083E889F9898081837048
:10036000806480839FBF81E090E0DF91CF911F91F7
:100370000F91FF90EF900895F62E0B8D10E00F5F18
:100380001F4F0F731127E02E8C8D8E110CC00FB6EE
:1003900007FCFACFE889F989808185FFF5CFCE0186
:1003A0000E947301F1CFEB8DEC0FFD2FF11DE35A8D
:1003B000FF4FF0829FB7F8940B8FEA89FB89808109
:1003C0008062CFCFCF93DF93EC01888D8823B9F083
:1003D000AA89BB89E889F9898C9185FD03C0808150
:1003E00086FD0DC00FB607FCF7CF8C9185FFF2CFCD
:1003F000808185FFEDCFCE010E947301E9CFDF91AF
:10040000CF91089520913303260F3327331F2132D4
:100410003105ECF420918203FC0190E080E024306F
:1004200069F082E00895A09133032191AC014D5E03
:100430005C4FA40FB52FB11D2C930196861798F32E
:1004400080913303680F6093330380E0089581E067
:1004500008951092820381E08093810310925C03DF
:1004600061E082E10E94820061E083E10E948200FB
:10047000E9EBF0E080818E7F808380818D7F8083B7
:1004800088E48093B80085E48093BC000895CF93FE
:10049000DF9391E0909312038823B9F0C091B800E4
:1004A000D091BA008091BC008A7B8093BC0060E050
:1004B00082E10E94820060E083E10E9482000E944B
:1004C0002902D093BA00C093B800DF91CF9108956C
:1004D0000895E0915B0380915A03E81730F4F0E04F
:1004E000EE50FD4F808190E008958FEF9FEF0895CB
:1004F00090915B0380915A032FEF3FEF981748F4D8
:10050000E92FF0E0EE50FD4F208130E09F5F9093A7
:100510005B03C901089580915A0390915B03891B85
:10052000990B0895CF92DF92EF92FF920F931F9352
:10053000CF93DF937C01CB018A0120918803222392
:1005400089F0EB016B01C40ED51ECC15DD0569F0F9
:100550006991D701ED91FC910190F081E02DC701E7
:100560000995F3CF642F0E940202C801DF91CF9159
:100570001F910F91FF90EF90DF90CF900895CF9350
:10058000DF931F92CDB7DEB76983209188032223C2
:10059000F9F02091AB03203258F021E030E0FC016B
:1005A0003383228390E080E00F90DF91CF91089514
:1005B00080918903E82FF0E0E657FC4F9981908302
:1005C0008F5F809389038093AB0381E090E0ECCF51
:1005D00061E0CE0101960E940202F7CF90E080E038
:1005E0000895FC0101900020E9F73197AF01481B05
:1005F000590BBC0185EB93E00C94F5008F929F9210
:10060000AF92BF920F931F93CF93DF93CDB7DEB717
:10061000A1970FB6F894DEBF0FBECDBF19A242302E
:1006200008F44AE08E010F5D1F4F842E912CB12CEF
:10063000A12CA50194010E945307E62FB901CA011C
:10064000EA30F4F4E05DD801EE938D01232B242BE6
:10065000252B79F790E080E0109719F0CD010E94EA
:10066000F102A1960FB6F894DEBF0FBECDBFDF91A9
:10067000CF911F910F91BF90AF909F908F90089551
:10068000E95CE1CFCF93DF930E94F102EC0184E2B9
:1006900091E00E94F1028C0F9D1FDF91CF91089590
:1006A00085ED8093BC008091840390918503A09197
:1006B0008603B09187030796A11DB11D23E0B6956F
:1006C000A795979587952A95D1F72091BC0024FD91
:1006D00003C01092820308954091840350918503D2
:1006E0006091860370918703452B462B472B69F356
:1006F0000097A105B10541F02AE22A95F1F700C063
:100700000197A109B109E1CF809183030C944702BD
:100710001F920F920FB60F9211242F933F938F9336
:100720009F93AF93BF938091AD039091AE03A0913F
:10073000AF03B091B0033091AC0323E0230F2D370A
:1007400058F50196A11DB11D2093AC038093AD0314
:100750009093AE03A093AF03B093B0038091B10325
:100760009091B203A091B303B091B4030196A11D7F
:10077000B11D8093B1039093B203A093B303B093E0
:10078000B403BF91AF919F918F913F912F910F90A3
:100790000FBE0F901F90189526E8230F0296A11DFB
:1007A000B11DD2CF1F920F920FB60F9211242F932B
:1007B0003F934F935F936F937F938F939F93AF93E9
:1007C000BF93EF93FF9385EB93E00E947301FF913A
:1007D000EF91BF91AF919F918F917F916F915F91B9
:1007E0004F913F912F910F900FBE0F901F90189532
:1007F0001F920F920FB60F9211242F938F939F93F6
:10080000EF93FF93E091C503F091C6038081E091DF
:10081000CB03F091CC0382FD1BC090818091CE036D
:100820008F5F8F732091CF03821741F0E091CE0349
:10083000F0E0EB54FC4F958F8093CE03FF91EF9146
:100840009F918F912F910F900FBE0F901F90189531
:100850008081F4CF1F920F920FB60F9211242F9325
:100860003F934F935F936F937F938F939F93AF9338
:10087000BF93EF93FF938091B900887F803609F48E
:100880004AC0F0F5883209F4A7C018F5803109F4A0
:100890009BC0B8F4882309F4F9C0883009F494C0E7
:1008A000FF91EF91BF91AF919F918F917F916F9148
:1008B0005F914F913F912F910F900FBE0F901F901E
:1008C0001895883109F488C0803251F780938003ED
:1008D00014C0803409F49DC040F48033B9F38833E8
:1008E000F9F68093800385ECB0C0803509F485C0AB
:1008F000883509F496C0883499F60E945003D0CF09
:10090000883909F48CC038F5883729F050F48836D6
:1009100011F0803729F683E080938203109255030B
:1009200057C0883809F47BC0803919F0803809F045
:10093000B7CF80915503803208F071C0E091550324
:1009400081E08E0F809355038091BB00F0E0EB5C5B
:10095000FC4F80833DC0803B39F0E0F4803A09F4DD
:1009600079C0883A09F09CCF84E08093820310928A
:10097000340310923303E0915803F0915903099521
:100980008091330381110FC081E080933303109273
:10099000130309C0803C09F4A6CF883C09F4A3CF17
:1009A000883B09F07DCFE091340381E08E0F809386
:1009B0003403F0E0ED5EFC4F80818093BB009091AA
:1009C00034038091330329C080915D038093BB0081
:1009D00085EC8093BC0064CF90917F0380917E036F
:1009E000981758F5E0917F0381E08E0F80937F0385
:1009F000F0E0E25AFC4F8081E9CFE0917F0381E093
:100A00008E0F80937F038091BB00F0E0E25AFC4F91
:100A1000808390917F0380917E039817C8F285E8C8
:100A2000D8CFE0917F0381E08E0F80937F03809188
:100A3000BB00F0E0E25AFC4F80838091810381117A
:100A40005CCF81E080935C0384EA8093BC001092C9
:100A5000820326CF85EC8093BC00109282038091A4
:100A60005503803230F4E0915503F0E0EB5CFC4F2D
:100A700010826091550370E0E0915603F0915703A6
:100A800085E393E00995109255030ACF10928003F5
:100A900034CFE5EBF3E01382128288EE93E0A0E01E
:100AA000B0E084839583A683B78324E031E031836B
:100AB000208325EC30E03587248724EC30E037872D
:100AC000268720EC30E0318B208B21EC30E0338B1B
:100AD000228B22EC30E0358B248B26EC30E0378BF8
:100AE000268B118E128E138E148EE2E5F4E01382A3
:100AF000128284839583A683B78386E191E09183F4
:100B000080830895789484B5826084BD84B58160C3
:100B100084BD85B5826085BD85B5816085BD8091C8
:100B20006E00816080936E00109281008091810040
:100B30008260809381008091810081608093810038
:100B4000809180008160809380008091B1008460FA
:100B50008093B1008091B00081608093B00080915B
:100B60007A00846080937A0080917A00826080931A
:100B70007A0080917A00816080937A0080917A0077
:100B8000806880937A001092C10010925B031092EB
:100B90005A03109289031092AB030E94290283EF3B
:100BA00090E0909359038093580384EF90E09093E2
:100BB000570380935603E091C503F091C60382E08A
:100BC0008083E091C103F091C2031082E091C303DE
:100BD000F091C4038FEC80831092CD03E091C903A0
:100BE000F091CA0386E08083E091C703F091C803C7
:100BF000808180618083E091C703F091C803808188
:100C000088608083E091C703F091C8038081806889
:100C10008083E091C703F091C80380818F7D80833A
:100C200087E291E00E94420380E491E00E94420347
:100C300088E0C82ED12CE12CF12CC0E0D1E092E06C
:100C4000992EAA24AA9405EE25ECB22E1C2DD09341
:100C50008803C092AA03109289031092AB030E94EA
:100C6000CE002B013C0180918203811162C09092E1
:100C70008203D0938103A092800310927F0310928D
:100C80007E0310925D0390915D03812F880F892B65
:100C900080935D0380915C03813009F0C6C010929F
:100CA0005C030E94CE002B013C0180915D03809388
:100CB000BB008091840390918503A0918603B0913D
:100CC0008703892B8A2B8B2BA1F00E94CE002091C9
:100CD0008403309185034091860350918703641902
:100CE000750986099709261737074807590708F431
:100CF00041C08091BC0083FDD8CFB092BC000E945F
:100D0000CE002B013C0180918203823009F490C017
:100D1000809180038F3F09F4ADC0809180038032C1
:100D200009F4AAC080918003803309F4A7C084E04D
:100D300026C08091840390918503A0918603B09191
:100D40008703892B8A2B8B2B09F48DCF0E94CE0031
:100D5000209184033091850340918603509187034D
:100D6000641975098609970926173707480759072F
:100D700008F079CF809183030E94470285E01092AA
:100D800089031092AB0310928803833009F485C065
:100D900008F076C0813009F47BC08230C1F08FE466
:100DA00091E00E94F102CF5F8BE992E00E94F10294
:100DB000103120F48EE992E00E94F10240E1C70177
:100DC000B6010E94FE0284E291E00E94F1028FEFE0
:100DD000C81AD80AE80AF80A88E7C816D104E10454
:100DE000F10409F033CF80EA92E0CC2369F086EC7D
:100DF00092E00E94F1026C2F70E090E080E04AE007
:100E00000E94FE0289ED92E00E9442038CEE92E085
:100E10000E944203C0E0D0E02097F1F30E945F01FE
:100E20008823D1F30E940000F7CF0093BC0067CF66
:100E30008091840390918503A0918603B0918703EC
:100E4000892B8A2B8B2B09F45ECF0E94CE00209138
:100E50008403309185034091860350918703641980
:100E6000750986099709261737074807590708F0B3
:100E70004ACF80CF80E083CF82E081CF83E07FCFF5
:100E8000843071F0853009F08ACF8FE792E002C09C
:100E90008FE791E00E94F10287CF8CEC91E0FACFCE
:100EA00087E192E0F7CFA1E21A2EAA1BBB1BFD013E
:100EB0000DC0AA1FBB1FEE1FFF1FA217B307E40739
:100EC000F50720F0A21BB30BE40BF50B661F771F91
:100ED000881F991F1A9469F7609570958095909571
:100EE0009B01AC01BD01CF010895EE0FFF1F0590DE
:0A0EF000F491E02D0994F894FFCF6F
:100EFA00000000009501F5002201E20153013101D1
:100F0A00450100000000BF029202EE0268028B0255
:100F1A00780269020D0A00457363616E6561646F48
:100F2A007220646520706F727461732049324300C5
:100F3A0050657371756973616E646F2E2E2E00553C
:100F4A006D20646973706F73697469766F204932B2
:100F5A004320666F6920656E636F6E747261646F99
:100F6A00206E6F20656E64657265C3A76F200045A9
:100F7A0072726F3A204F73206461646F73206578D0
:100F8A00636564656D206120636170616369646192
:100F9A00646520646F206275666665722028333244
:100FAA002062797465732920616F206C6572206FE5
:100FBA0020656E64657265C3A76F2000556D206455
:100FCA006973706F73697469766F20666F692065DB
:100FDA006E636F6E747261646F206E6573746520E0
:100FEA00656E64657265C3A76F2C206D6173206E90
:100FFA00C3A36F20657374C3A120726573706F6E8B
:10100A0064656E646F20004572726F3A20616C6786
:10101A00756D206F7574726F2070726F626C656D7A
:10102A006120666F692064657465637461646F200A
:10103A0028706572646120646520617262697472E5
:10104A0061C3A7C3A36F20646F206275732C2065E8
:10105A0072726F206E6F206275732C20657463291B
:10106A00206E6F20656E64657265C3A76F200045A8
:10107A0072726F3A2074696D656F7574206E6F2095
:10108A00656E64657265C3A76F2000307800300012
:10109A004E656E68756D20646973706F73697469E3
:1010AA00766F2049324320666F69206465746563F0
:1010BA007461646F2E00466F72616D20656E636F96
:1010CA006E747261646F73200020646973706F7349
:1010DA00697469766F73204932432E0066696D21FF
:0210EA00000004
:00000001FF
