:100000000C9458000C9480000C9480000C94800098
:100010000C9480000C9480000C9480000C94800060
:100020000C9480000C9480000C9480000C94800050
:100030000C9480000C9480000C9480000C94800040
:100040000C943A030C9480000C94AA030C9484033F
:100050000C9480000C9480000C9480000C94800020
:100060000C94DC030C9480000000000025002800A4
:100070002B00040404040404040402020202020229
:10008000030303030303010204081020408001025C
:1000900004081020010204081020000000080002DB
:1000A0000100000304070000000000000000FB0442
:1000B00011241FBECFEFD8E0DEBFCDBF11E0A0E01E
:1000C000B1E0EEEAFEE002C005900D92AE38B10755
:1000D000D9F722E0AEE8B1E001C01D92AA3DB20717
:1000E000E1F710E0C8E5D0E004C02197FE010E94CE
:1000F0004F07C735D107C9F70E9434050C9455073F
:100100000C94000090E0FC01E656FF4F2491FC01A6
:10011000EA57FF4F3491FC01EE58FF4FE491EE2374
:10012000C9F0222339F0233001F1A8F4213019F16C
:10013000223029F1F0E0EE0FFF1FE859FF4FA591A3
:10014000B4918FB7F894EC91611126C030953E239D
:100150003C938FBF08952730A9F02830C9F0243090
:1001600049F7809180008F7D03C0809180008F7758
:1001700080938000DFCF84B58F7784BDDBCF84B5DB
:100180008F7DFBCF8091B0008F778093B000D2CF6E
:100190008091B0008F7DF9CF3E2BDACF3FB7F89436
:1001A00080912D0290912E02A0912F02B0913002E9
:1001B00026B5A89B05C02F3F19F00196A11DB11DC2
:1001C0003FBFBA2FA92F982F8827BC01CD01620FFE
:1001D000711D811D911D42E0660F771F881F991FB9
:1001E0004A95D1F708958091250290912402891BA8
:1001F000990B089508950895AF92BF92CF92DF9220
:10020000EF92FF920F931F93CF93DF936C017B01CB
:100210008B01040F151FEB015E01AE18BF08C0175C
:10022000D10759F06991D601ED91FC910190F081CF
:10023000E02DC6010995892B79F7C501DF91CF9192
:100240001F910F91FF90EF90DF90CF90BF90AF90F4
:100250000895FC01538D448D252F30E0842F90E0CC
:10026000821B930B541710F0CF96089501970895B1
:10027000FC01918D828D981761F0A28DAE0FBF2F7A
:10028000B11D5D968C91928D9F5F9F73928F90E0D0
:1002900008958FEF9FEF0895FC01918D828D98173F
:1002A00031F0828DE80FF11D858D90E008958FEF7C
:1002B0009FEF0895FC01918D228D892F90E0805C45
:1002C0009F4F821B91098F739927089581E392E0D4
:1002D0000E945A0121E0892B09F420E0822F089521
:1002E00080E090E0892B29F00E94660181110C9436
:1002F00000000895FC01A48DA80FB92FB11DA35AC9
:10030000BF4F2C91848D90E001968F739927848F35
:10031000A689B7892C93A089B1898C918370806458
:100320008C93938D848D981306C00288F389E02DF9
:1003300080818F7D80830895EF92FF920F931F93AA
:10034000CF93DF93EC0181E0888F9B8D8C8D981388
:100350001AC0E889F989808185FF15C09FB7F89494
:10036000EE89FF896083E889F989808183708064E0
:1003700080839FBF81E090E0DF91CF911F910F912B
:10038000FF90EF900895F62E0B8D10E00F5F1F4F3A
:100390000F731127E02E8C8D8E110CC00FB607FC49
:1003A000FACFE889F989808185FFF5CFCE010E94D7
:1003B0007A01F1CFEB8DEC0FFD2FF11DE35AFF4FCA
:1003C000F0829FB7F8940B8FEA89FB898081806265
:1003D000CFCFCF93DF93EC01888D8823B9F0AA8922
:1003E000BB89E889F9898C9185FD03C0808186FDF0
:1003F0000DC00FB607FCF7CF8C9185FFF2CF80813F
:1004000085FFEDCFCE010E947A01E9CFDF91CF9138
:1004100008952091AF01260F3327331F2132310574
:10042000ECF42091FE01FC0190E080E0243069F0C2
:1004300082E00895A091AF012191AC0141575E4F38
:10044000A40FB52FB11D2C930196861798F38091B8
:10045000AF01680F6093AF0180E0089581E00895D7
:100460001092FE0181E08093FD011092F80161E09D
:1004700082E10E94820061E083E10E948200E9EB58
:10048000F0E080818E7F808380818D7F808388E40F
:100490008093B80085E48093BC000895CF93DF93E8
:1004A00091E090938E018823B9F0C091B800D0916B
:1004B000BA008091BC008A7B8093BC0060E082E13E
:1004C0000E94820060E083E10E9482000E9430026C
:1004D000D093BA00C093B800DF91CF9108950895EA
:1004E000E091240280912502E81730F4F0E0EC5FFF
:1004F000FD4F808190E008958FEF9FEF08959091D8
:100500002402809125022FEF3FEF981748F4E92F3E
:10051000F0E0EC5FFD4F208130E09F5F909324027C
:10052000C9010895CF93DF93CB01EA01642F0E94A4
:100530000902CE01DF91CF910895CF93DF931F92EF
:10054000CDB7DEB7698361E0CE0101960E94090252
:1005500081E090E00F90DF91CF91089590E080E0EE
:100560000895FC0101900020E9F73197AF01481B85
:10057000590BBC0181E392E00C94FC008F929F9296
:10058000AF92BF920F931F93CF93DF93CDB7DEB798
:10059000A1970FB6F894DEBF0FBECDBF19A24230AF
:1005A00008F44AE08E010F5D1F4F842E912CB12C70
:1005B000A12CA50194010E942D07E62FB901CA01C3
:1005C000EA30F4F4E05DD801EE938D01232B242B67
:1005D000252B79F790E080E0109719F0CD010E946B
:1005E000B102A1960FB6F894DEBF0FBECDBFDF916A
:1005F000CF911F910F91BF90AF909F908F900895D2
:10060000E95CE1CF85ED8093BC0080910002909180
:100610000102A0910202B09103020796A11DB11D33
:1006200023E0B695A795979587952A95D1F72091C0
:10063000BC0024FD03C01092FE0108954091000209
:10064000509101026091020270910302452B462BEA
:10065000472B69F30097A105B10541F02AE22A95DD
:10066000F1F700C00197A109B109E1CF8091FF0125
:100670000C944E021F920F920FB60F9211242F93DB
:100680003F938F939F93AF93BF9380912902909153
:100690002A02A0912B02B0912C023091280223E073
:1006A000230F2D3758F50196A11DB11D2093280267
:1006B0008093290290932A02A0932B02B0932C02DC
:1006C00080912D0290912E02A0912F02B0913002C4
:1006D0000196A11DB11D80932D0290932E02A0932F
:1006E0002F02B0933002BF91AF919F918F913F91B4
:1006F0002F910F900FBE0F901F90189526E8230F93
:100700000296A11DB11DD2CF1F920F920FB60F926C
:1007100011242F933F934F935F936F937F938F9306
:100720009F93AF93BF93EF93FF9381E392E00E9477
:100730007A01FF91EF91BF91AF919F918F917F913E
:100740006F915F914F913F912F910F900FBE0F903E
:100750001F9018951F920F920FB60F9211242F938E
:100760008F939F93EF93FF93E0914102F0914202A8
:100770008081E0914702F091480282FD1BC0908188
:1007800080914A028F5F8F7320914B02821741F054
:10079000E0914A02F0E0EF5CFD4F958F80934A02B2
:1007A000FF91EF919F918F912F910F900FBE0F901E
:1007B0001F9018958081F4CF1F920F920FB60F9261
:1007C00011242F933F934F935F936F937F938F9356
:1007D0009F93AF93BF93EF93FF938091B900887F6E
:1007E000803609F44AC0F0F5883209F4A7C018F53C
:1007F000803109F49BC0B8F4882309F4F9C088302B
:1008000009F494C0FF91EF91BF91AF919F918F91A7
:100810007F916F915F914F913F912F910F900FBEFC
:100820000F901F901895883109F488C0803251F7D5
:100830008093FC0114C0803409F49DC040F48033DF
:10084000B9F38833F9F68093FC0185ECB0C08035AC
:1008500009F485C0883509F496C0883499F60E9459
:100860000203D0CF883909F48CC038F5883729F0D5
:1008700050F4883611F0803729F683E08093FE012A
:100880001092D10157C0883809F47BC0803919F023
:10089000803809F0B7CF8091D101803208F071C063
:1008A000E091D10181E08E0F8093D1018091BB0056
:1008B000F0E0EF54FE4F80833DC0803B39F0E0F420
:1008C000803A09F479C0883A09F09CCF84E080939B
:1008D000FE011092B0011092AF01E091D401F091AD
:1008E000D50109958091AF0181110FC081E08093FE
:1008F000AF0110928F0109C0803C09F4A6CF883C5B
:1009000009F4A3CF883B09F07DCFE091B00181E0ED
:100910008E0F8093B001F0E0E157FE4F808180930D
:10092000BB009091B0018091AF0129C08091F90185
:100930008093BB0085EC8093BC0064CF9091FB0159
:100940008091FA01981758F5E091FB0181E08E0F34
:100950008093FB01F0E0E852FE4F8081E9CFE09107
:10096000FB0181E08E0F8093FB018091BB00F0E0E2
:10097000E852FE4F80839091FB018091FA01981715
:10098000C8F285E8D8CFE091FB0181E08E0F80931B
:10099000FB018091BB00F0E0E852FE4F8083809124
:1009A000FD0181115CCF81E08093F80184EA80939E
:1009B000BC001092FE0126CF85EC8093BC00109203
:1009C000FE018091D101803230F4E091D101F0E05C
:1009D000EF54FE4F10826091D10170E0E091D2019E
:1009E000F091D30181EB91E009951092D1010ACFEA
:1009F0001092FC0134CFE1E3F2E01382128288EE20
:100A000093E0A0E0B0E084839583A683B78324E0DD
:100A100031E03183208325EC30E03587248724ECD6
:100A200030E03787268720EC30E0318B208B21ECBB
:100A300030E0338B228B22EC30E0358B248B26EC9C
:100A400030E0378B268B118E128E138E148EEEECC7
:100A5000F2E01382128284839583A683B78386E1B2
:100A600091E0918380830895789484B5826084BDF9
:100A700084B5816084BD85B5826085BD85B58160A2
:100A800085BD80916E00816080936E001092810020
:100A900080918100826080938100809181008160DB
:100AA000809381008091800081608093800080919C
:100AB000B10084608093B1008091B0008160809328
:100AC000B00080917A00846080937A0080917A00EF
:100AD000826080937A0080917A00816080937A00AE
:100AE00080917A00806880937A001092C100109201
:100AF0002402109225021092D7011092D6010E9472
:100B000030028AEF90E09093D5018093D4018BEF6F
:100B100090E09093D3018093D201E0914102F09153
:100B2000420282E08083E0913D02F0913E02108219
:100B3000E0913F02F09140028FEC808310924902D5
:100B4000E0914502F091460286E08083E091430205
:100B5000F0914402808180618083E0914302F091B2
:100B60004402808188608083E0914302F0914402D6
:100B7000808180688083E0914302F091440280810B
:100B80008F7D808325EEA22ED5EC00E010E0C1E041
:100B9000BB24BA9484E291E00E94B10260912702E2
:100BA00070E090E080E04AE00E94BE028DE291E0B9
:100BB0000E94B10290E5C92ED12CE12CF12C0E94AB
:100BC000CE002B013C018091FE01811164C0C093D5
:100BD000FE01C093FD01B092FC011092FB01109246
:100BE000FA01C093F9019091F9018C2D880F892B9E
:100BF0008093F9018091F801813009F081C0109251
:100C0000F8010E94CE002B013C018091F9018093F4
:100C1000BB008091000290910102A0910202B0916C
:100C20000302892B8A2B8B2BA1F00E94CE002091EE
:100C300000023091010240910202509103026419B6
:100C4000750986099709261737074807590708F4D1
:100C500043C08091BC0083FDD8CFD093BC000E94DC
:100C6000CE002B013C018091FE01813009F44BC084
:100C70008091FB0177247394811102C07090FB0175
:100C8000E8EDF1E0A4E0B2E080E0871551F1919148
:100C90009D938F5FFACF8091000290910102A09105
:100CA0000202B0910302892B8A2B8B2B09F48BCF84
:100CB0000E94CE0020910002309101024091020278
:100CC0005091030264197509860997092617370799
:100CD0004807590708F077CF8091FF010E944E0224
:100CE000712C1092240270922502809124027816B1
:100CF00061F18EEC92E00E947F0280932602F5CF94
:100D0000A092BC00ACCF8091000290910102A09112
:100D10000202B0910302892B8A2B8B2B09F4A3CFFB
:100D20000E94CE0020910002309101024091020207
:100D30005091030264197509860997092617370728
:100D40004807590708F08FCFC7CF80E391E00E9492
:100D5000B10240E1C701B6010E94BE028AE291E001
:100D60000E94B1026091260270E090E080E042E0D3
:100D70000E94BE028DE291E00E94B10282E591E004
:100D80000E94B1022091260270E060E090E080E0D5
:100D900030E0A901082E02C0559547950A94E2F764
:100DA00040FF02C06F5F7F4F01968830910589F741
:100DB000072E000C880B990B4AE00E94BE028DE2C0
:100DC00091E00E94B1028FE691E00E94B1028DE2B3
:100DD00091E00E94B1022FEFC21AD20AE20AF20A8F
:100DE00083E5C816D104E104F10409F0E8CE80914E
:100DF00027028F5F809327020E94CE002B013C01C7
:100E000088EEC82E83E0D82EE12CF12C0E94CE0073
:100E10006419750986099709683E73408105910533
:100E2000A8F321E0C21AD108E108F10888EE480EC3
:100E300083E0581E611C711CC114D104E104F1044B
:100E400029F70115110509F4A5CE0E946601882332
:100E500009F4A0CE0E9400009DCEA1E21A2EAA1B8A
:100E6000BB1BFD010DC0AA1FBB1FEE1FFF1FA2175A
:100E7000B307E407F50720F0A21BB30BE40BF50B57
:100E8000661F771F881F991F1A9469F760957095E0
:100E9000809590959B01AC01BD01CF010895EE0FA7
:0E0EA000FF1F0590F491E02D0994F894FFCF08
:100EAE00000000009C01FC002901E9015A013801F3
:100EBE004C01000000009D029202AE026F02F30090
:100ECE007F027002526F646164613A20000D0A0065
:100EDE004461646F7320726563656269646F732029
:100EEE00646F20646973706F73697469766F2030F4
:100EFE0078005175616E7469646164652064652063
:100F0E006269747320656D20616C746F3A20002DD8
:100F1E002D2D2D2D2D2D2D2D2D2D2D2D2D2D2D2DF3
:0E0F2E002D2D2D2D2D2D2D2D2D2D2D2D000099
:00000001FF
