:100000000C9458000C9480000C9480000C94800098
:100010000C9480000C9480000C9480000C94800060
:100020000C9480000C9480000C9480000C94800050
:100030000C9480000C9480000C9480000C94800040
:100040000C948B050C9480000C94FB050C94D50546
:100050000C9480000C9480000C9480000C94800020
:100060000C942D060C948000000000002500280050
:100070002B00040404040404040402020202020229
:10008000030303030303010204081020408001025C
:1000900004081020010204081020000000080002DB
:1000A00001000003040700000000000000004C07EE
:1000B00011241FBECFEFD8E0DEBFCDBF23E0A2ECFE
:1000C000B1E001C01D92A933B207E1F711E0A0E051
:1000D000B1E0E4E9FAE102C005900D92A23CB1075B
:1000E000D9F710E0C8E5D0E004C02197FE010E94D6
:1000F000500BC735D107C9F70E9485070C94480DEE
:100100000C94000090E0FC01E656FF4F2491FC01A6
:10011000EA57FF4F3491FC01EE58FF4FE491EE2374
:10012000C9F0222339F0233001F1A8F4213019F16C
:10013000223029F1F0E0EE0FFF1FE859FF4FA591A3
:10014000B4918FB7F894EC91611126C030953E239D
:100150003C938FBF08952730A9F02830C9F0243090
:1001600049F7809180008F7D03C0809180008F7758
:1001700080938000DFCF84B58F7784BDDBCF84B5DB
:100180008F7DFBCF8091B0008F778093B000D2CF6E
:100190008091B0008F7DF9CF3E2BDACF3FB7F89436
:1001A0008091880290918902A0918A02B0918B027D
:1001B00026B5A89B05C02F3F19F00196A11DB11DC2
:1001C0003FBFBA2FA92F982F8827BC01CD01620FFE
:1001D000711D811D911D42E0660F771F881F991FB9
:1001E0004A95D1F708958F929F92AF92BF92CF9286
:1001F000DF92EF92FF924B015C010E94CE006B01F7
:100200007C010E94CE006C197D098E099F09683E11
:10021000734081059105A8F321E0821A9108A10895
:10022000B10888EEC80E83E0D81EE11CF11C8114D1
:100230009104A104B10429F7FF90EF90DF90CF90D3
:10024000BF90AF909F908F90089580917B02909186
:100250007A02891B990B089508950895AF92BF9271
:10026000CF92DF92EF92FF920F931F93CF93DF9382
:100270006C017B018B01040F151FEB015E01AE18B1
:10028000BF08C017D10759F06991D601ED91FC91D3
:100290000190F081E02DC6010995892B79F7C50100
:1002A000DF91CF911F910F91FF90EF90DF90CF9052
:1002B000BF90AF900895FC01538D448D252F30E001
:1002C000842F90E0821B930B541710F0CF96089563
:1002D00001970895FC01918D828D981761F0A28D90
:1002E000AE0FBF2FB11D5D968C91928D9F5F9F7356
:1002F000928F90E008958FEF9FEF0895FC01918D0C
:10030000828D981731F0828DE80FF11D858D90E078
:1003100008958FEF9FEF0895FC01918D228D892F15
:1003200090E0805C9F4F821B91098F7399270895FD
:100330008CE892E00E948C0121E0892B09F420E0F6
:10034000822F089580E090E0892B29F00E94980187
:1003500081110C9400000895FC01A48DA80FB92F01
:10036000B11DA35ABF4F2C91848D90E001968F73DD
:100370009927848FA689B7892C93A089B1898C91FC
:10038000837080648C93938D848D981306C002884B
:10039000F389E02D80818F7D80830895EF92FF9215
:1003A0000F931F93CF93DF93EC0181E0888F9B8D98
:1003B0008C8D98131AC0E889F989808185FF15C052
:1003C0009FB7F894EE89FF896083E889F989808175
:1003D0008370806480839FBF81E090E0DF91CF9144
:1003E0001F910F91FF90EF900895F62E0B8D10E066
:1003F0000F5F1F4F0F731127E02E8C8D8E110CC0D5
:100400000FB607FCFACFE889F989808185FFF5CF1F
:10041000CE010E94AC01F1CFEB8DEC0FFD2FF11D51
:10042000E35AFF4FF0829FB7F8940B8FEA89FB895C
:1004300080818062CFCFCF93DF93EC01888D8823BA
:10044000B9F0AA89BB89E889F9898C9185FD03C037
:10045000808186FD0DC00FB607FCF7CF8C9185FF1C
:10046000F2CF808185FFEDCFCE010E94AC01E9CFB4
:10047000DF91CF91089508952091E301260F33274E
:10048000331F21323105ECF420915402FC0190E03D
:1004900080E0243069F082E00895A091E301219189
:1004A000AC014D535E4FA40FB52FB11D2C93019697
:1004B000861798F38091E301680F6093E30180E071
:1004C000089581E008951092540281E080935302D0
:1004D00010924E0261E082E10E94820061E083E1BD
:1004E0000E948200E9EBF0E080818E7F8083808132
:1004F0008D7F808388E48093B80085E48093BC007E
:100500000895CF93DF9391E09093C2018823B9F0CF
:10051000C091B800D091BA008091BC008A7B8093D2
:10052000BC0060E082E10E94820060E083E10E9402
:1005300082000E946302D093BA00C093B800DF919A
:10054000CF9108950895E0917A0280917B02E81797
:1005500030F4F0E0E65AFD4F808190E008958FEF8F
:100560009FEF089590917A0280917B022FEF3FEFE9
:10057000981748F4E92FF0E0E65AFD4F208130E06B
:100580009F5F90937A02C9010895CF92DF92EF9214
:10059000FF920F931F93CF93DF937C01CB018A01CE
:1005A00020910602222389F0EB016B01C40ED51EB7
:1005B000CC15DD0569F06991D701ED91FC910190B1
:1005C000F081E02DC7010995F3CF642F0E943C0212
:1005D000C801DF91CF911F910F91FF90EF90DF90B5
:1005E000CF900895CF93DF931F92CDB7DEB7698385
:1005F000209106022223F9F020912C02203258F09B
:1006000021E030E0FC013383228390E080E00F9012
:10061000DF91CF91089580912D02E82FF0E0E95FFE
:10062000FD4F998190838F5F80932D0280932C02E0
:1006300081E090E0ECCF61E0CE0101960E943C02A7
:10064000F7CFCF92DF92EF92FF920F931F93CF934A
:10065000DF93FC01C48121E020930602C0932702AE
:1006600010922D0210922C028385682B89E293E070
:100670000E94F202D0912C02D13208F092C00E9466
:10068000CE006B017C0180915402811165C082E033
:100690008093540281E0809353028FEF8093520243
:1006A00010925102D0935002A7E0B2E0EEE2F2E0E5
:1006B00080E0D81385C010924F0280914F02CC0F7A
:1006C000C82BC0934F0280914E02813009F07CC04C
:1006D00010924E020E94CE006B017C0180914F026D
:1006E0008093BB008091560290915702A0915802CE
:1006F000B0915902892B8A2B8B2B99F00E94CE0046
:1007000000915602109157022091580230915902DF
:100710006C197D098E099F090617170728073907E5
:10072000E0F18091BC0083FDD9CF85EC8093BC00C3
:100730000E94CE006B017C0180915402823009F44A
:1007400045C0809152028F3F61F180915202803208
:1007500041F18091520225C080915602909157023A
:10076000A0915802B0915902892B8A2B8B2B09F446
:100770008ACF0E94CE00009156021091570220911C
:100780005802309159026C197D098E099F0906178C
:1007900017072807390708F076CF809155020E9485
:1007A000810210922D0210922C0210920602DF910B
:1007B000CF911F910F91FF90EF90DF90CF90089510
:1007C0009D9191938F5F75CF85EEB0CF809156024A
:1007D00090915702A0915802B0915902892B8A2B0F
:1007E0008B2B09F4A9CF0E94CE00009156021091E4
:1007F000570220915802309159026C197D098E09D7
:100800009F09061717072807390708F095CFC5CFA6
:1008100090E080E00895FB0101900020E9F7319716
:10082000AF01461B570BDC01ED91FC910280F38177
:10083000E02D09948F929F92AF92BF920F931F93D6
:10084000CF93DF93CDB7DEB7A1970FB6F894DEBF95
:100850000FBECDBF19A2423008F44AE08E010F5DF1
:100860001F4F842E912CB12CA12CA50194010E9424
:100870002E0BE62FB901CA01EA3004F5E05DD8017C
:10088000EE938D01232B242B252B79F790E080E02C
:10089000109729F0BD018CE892E00E940B04A1960C
:1008A0000FB6F894DEBF0FBECDBFDF91CF911F9181
:1008B0000F91BF90AF909F908F900895E95CDFCF2C
:1008C000CF93DF93EC0188819981009711F00E940A
:1008D000F20B198218821D821C821B821A82DF9100
:1008E000CF910895FC0180819181009711F00C94C3
:1008F000F20B08950F931F93CF938C01C62F0E9484
:1009000021036C2F6460C8010E9421036C2F6B7F50
:10091000C8010E94210383EC90E00197F1F7CF9189
:100920001F910F9108950F931F93CF93DF938C0125
:10093000D62FC42F607F642B0E947A0480E1D89F59
:10094000B00111246C2BC801DF91CF911F910F9141
:100950000C947A04CF93DF93CDB7DEB728970FB608
:10096000F894DEBF0FBECDBF28E0E6E0F1E0DE0187
:10097000119601900D922A95E1F7FC012085211135
:1009800018C02FEF30E0220F331F41E050E04C0F32
:100990005D1F240F351FF9016081606840E02896D3
:1009A0000FB6F894DEBF0FBECDBFDF91CF910C9490
:1009B000930421E0E7CF41E00E94930481E090E0BE
:1009C00008950F931F93CF93DF93EC018881998152
:1009D000009759F02A813B812617370730F081E0D4
:1009E000DF91CF911F910F9108958B016F5F7F4F22
:1009F0000E947B0C009759F0998388831B830A839C
:100A00002C813D81232B59F7FC011082E8CF80E037
:100A1000E7CFCF92DF92EF92FF920F931F93CF9386
:100A2000DF93CDB7DEB762970FB6F894DEBF0FBE87
:100A3000CDBF8C01CB01F80111821082138212828A
:100A4000158214824AE09E012F5F3F4F6901B90170
:100A50000E94C20AF60101900020E9F731977F0158
:100A6000EC18FD08B701C8010E94E104811112C011
:100A7000C8010E94600462960FB6F894DEBF0FBEF4
:100A8000CDBFDF91CF911F910F91FF90EF90DF903D
:100A9000CF900895F801F582E482B60180819181BA
:100AA0000E94410DE8CF85ED8093BC0080915602F5
:100AB00090915702A0915802B09159020796A11D3A
:100AC000B11D23E0B695A795979587952A95D1F7FF
:100AD0002091BC0024FD03C010925402089540915F
:100AE0005602509157026091580270915902452B5D
:100AF000462B472B69F30097A105B10541F02AE287
:100B00002A95F1F700C00197A109B109E1CF8091C1
:100B100055020C9481021F920F920FB60F9211246E
:100B20002F933F938F939F93AF93BF9380918402B2
:100B300090918502A0918602B09187023091830244
:100B400023E0230F2D3758F50196A11DB11D2093E9
:100B500083028093840290938502A0938602B093CF
:100B600087028091880290918902A0918A02B091B7
:100B70008B020196A11DB11D80938802909389027A
:100B8000A0938A02B0938B02BF91AF919F918F91F6
:100B90003F912F910F900FBE0F901F90189526E850
:100BA000230F0296A11DB11DD2CF1F920F920FB637
:100BB0000F9211242F933F934F935F936F937F93E3
:100BC0008F939F93AF93BF93EF93FF938CE892E043
:100BD0000E94AC01FF91EF91BF91AF919F918F91D6
:100BE0007F916F915F914F913F912F910F900FBE29
:100BF0000F901F9018951F920F920FB60F9211240D
:100C00002F938F939F93EF93FF93E0919C02F0912A
:100C10009D028081E091A202F091A30282FD1BC09F
:100C200090818091A5028F5F8F732091A602821719
:100C300041F0E091A502F0E0E457FD4F958F8093DD
:100C4000A502FF91EF919F918F912F910F900FBE71
:100C50000F901F9018958081F4CF1F920F920FB6BE
:100C60000F9211242F933F934F935F936F937F9332
:100C70008F939F93AF93BF93EF93FF938091B900AE
:100C8000887F803609F44AC0F0F5883209F4A7C09D
:100C900018F5803109F49BC0B8F4882309F4F9C031
:100CA000883009F494C0FF91EF91BF91AF919F916B
:100CB0008F917F916F915F914F913F912F910F9005
:100CC0000FBE0F901F901895883109F488C08032AC
:100CD00051F78093520214C0803409F49DC040F44F
:100CE0008033B9F38833F9F68093520285ECB0C0B3
:100CF000803509F485C0883509F496C0883499F6A2
:100D00000E945305D0CF883909F48CC038F5883754
:100D100029F050F4883611F0803729F683E080936B
:100D200054021092050257C0883809F47BC08039FC
:100D300019F0803809F0B7CF80910502803208F0B1
:100D400071C0E091050281E08E0F809305028091D1
:100D5000BB00F0E0EB51FE4F80833DC0803B39F09B
:100D6000E0F4803A09F479C0883A09F09CCF84E035
:100D7000809354021092E4011092E301E091280262
:100D8000F091290209958091E30181110FC081E062
:100D90008093E3011092C30109C0803C09F4A6CFFF
:100DA000883C09F4A3CF883B09F07DCFE091E401B2
:100DB00081E08E0F8093E401F0E0ED53FE4F8081DF
:100DC0008093BB009091E4018091E30129C0809160
:100DD0004F028093BB0085EC8093BC0064CF909160
:100DE000510280915002981758F5E091510281E02C
:100DF0008E0F80935102F0E0E25DFD4F8081E9CFDC
:100E0000E091510281E08E0F809351028091BB00EE
:100E1000F0E0E25DFD4F808390915102809150029D
:100E20009817C8F285E8D8CFE091510281E08E0F83
:100E3000809351028091BB00F0E0E25DFD4F808322
:100E40008091530281115CCF81E080934E0284EA4D
:100E50008093BC001092540226CF85EC8093BC0096
:100E60001092540280910502803230F4E091050224
:100E7000F0E0EB51FE4F10826091050270E0E091CE
:100E80002A02F0912B0285EE91E00995109205025D
:100E90000ACF1092520234CFECE8F2E013821282B1
:100EA00088EE93E0A0E0B0E084839583A683B783C7
:100EB0002EE131E03183208325EC30E03587248733
:100EC00024EC30E03787268720EC30E0318B208B14
:100ED00021EC30E0338B228B22EC30E0358B248BFD
:100EE00026EC30E0378B268B118E128E138E148EEB
:100EF000E9E2F3E01382128284839583A683B783A9
:100F000080E391E0918380830895CF93DF93CDB701
:100F1000DEB763970FB6F894DEBF0FBECDBF7894EF
:100F200084B5826084BD84B5816084BD85B58260EE
:100F300085BD85B5816085BD80916E00816080939F
:100F40006E00109281008091810082608093810008
:100F50008091810081608093810080918000816018
:100F6000809380008091B10084608093B100809173
:100F7000B00081608093B00080917A00846080939B
:100F80007A0080917A00826080937A0080917A0062
:100F9000816080937A0080917A00806880937A00E3
:100FA0001092C1000E946302E0919C02F0919D02A8
:100FB00082E08083E0919802F09199021082E091A2
:100FC0009A02F0919B028FEC80831092A402E09130
:100FD000A002F091A10286E08083E0919E02F09150
:100FE0009F02808180618083E0919E02F0919F0248
:100FF000808188608083E0919E02F0919F028081D1
:1010000080688083E0919E02F0919F0280818F7DB5
:1010100080833CE7832E32E0932E80E28B8B42E18B
:10102000442E41E0542E5CE2A52E51E0B52E6DE237
:10103000662E61E0762E7BE4C72E76E4D72EE3E5BC
:101040002E2EE2E03E2EFBE3EF2EFFE1FF2E8CE0A2
:1010500090E00E94560B8C01DC0113961C921E92AC
:10106000129711965C924E92EB891496EC9314971A
:10107000F0E11996FC93199782E01A968C931A97CF
:101080001B961C92D4010D931D934D0110927A0270
:1010900010927B0210922D0210922C020E94630289
:1010A000B0922902A092280270922B0260922A022A
:1010B000F80115828285823010F098E09583D8017E
:1010C00018968C9362E370E080E090E00E94F30059
:1010D000F8016385C8010E94210368EE73E080E097
:1010E00090E00E94F30060E3C8010E947A04C60108
:1010F0000197F1F760E3C8010E947A04C6010197E5
:10110000F1F760E3C8010E947A04C1010197F1F789
:1011100060E2C8010E947A04D80115966C91606261
:1011200040E0C8010E94930484E0F801868340E017
:101130006CE0C8010E94930440E061E0C8010E9495
:101140009304C7010197F1F7E2E0D8011796EC93F9
:1011500040E066E0C8010E94930440E062E0C801FC
:101160000E949304C7010197F1F7E8E0D8011B96AC
:10117000EC9360E0C8010E9421036EE371E0C801B6
:101180000E940B04FB89FF5FFB8BF33209F05FCFFA
:1011900020E0222E20E0322E9924939488248A94F1
:1011A0008CE7E82E82E0F82E90E5492E512C612C38
:1011B000712C0E94CE005B016C0180915402811160
:1011C00064C0909254029092530280925202109204
:1011D00051021092500290924F0290914F02842D32
:1011E000880F892B80934F0280914E02813009F045
:1011F00081C010924E020E94CE005B016C01809172
:101200004F028093BB008091560290915702A091AB
:101210005802B0915902892B8A2B8B2BA1F00E9486
:10122000CE00009156021091570220915802309141
:1012300059026A197B098C099D09061717072807A7
:10124000390708F443C08091BC0083FDD8CF85ECFA
:101250008093BC000E94CE005B016C01809154021F
:10126000813009F44BC08091510211E0811102C01C
:1012700010915102AEE2B2E0EAE5F2E080E08117BF
:1012800051F19D9191938F5FFACF80915602909189
:101290005702A0915802B0915902892B8A2B8B2BAF
:1012A00009F48BCF0E94CE00009156021091570294
:1012B00020915802309159026A197B098C099D09C5
:1012C000061717072807390708F077CF80915502CE
:1012D0000E94810210E010927A0210937B028091AA
:1012E0007A02181769F189E293E00E94B2028093B2
:1012F0008202F5CF95EE9093BC00ACCF8091560260
:1013000090915702A0915802B0915902892B8A2BD3
:101310008B2B09F4A3CF0E94CE00009156021091AE
:10132000570220915802309159026A197B098C09A1
:101330009D09061717072807390708F08FCFC6CF72
:101340006EE471E08CE892E00E940B0440E1C3017E
:10135000B2010E941A046DE871E08CE892E00E94EC
:101360000B046091820270E090E080E042E00E9415
:101370001A0460E771E08CE892E00E940B0463E7D6
:1013800071E08CE892E00E940B042091820290E0D0
:1013900080E070E060E030E0A901082E02C05595C1
:1013A00047950A94E2F740FF02C06F5F7F4F0196B6
:1013B0008830910589F7072E000C880B990B4AE0BD
:1013C0000E941A0460E771E08CE892E00E940B042E
:1013D00060E971E08CE892E00E940B0460E771E044
:1013E0008CE892E00E940B04D7010D911C91C8017A
:1013F0000E94AA046EEA71E0C8010E940B04F70182
:10140000C080D180C6010E94AA0466E070E0CE01CF
:1014100001960E9409052091820290E080E070E030
:1014200060E030E0A901082E02C0559547950A9466
:10143000E2F740FF02C06F5F7F4F01968830910551
:1014400089F7CE010D960E94090518861F821A861B
:1014500019861C861B860D851E850115110569F0F0
:10146000A988BA88B501CE0107960E94E1048111CE
:1014700077C0CE0107960E9460040B851C850F5F24
:101480001F4FB801CE0107960E94E104882309F49A
:101490006FC02F8138858B859C856FEB71E0820F43
:1014A000931F0E94410D1C870B87A980BA80A1144D
:1014B000B10409F462C00D811E8101151105B9F056
:1014C0008B859C85080F191FB801CE0107960E94D5
:1014D000E104882309F451C02F8138858B859C85D0
:1014E000B501820F931F0E94410D1C870B874B850E
:1014F0005C856F817885D601ED91FC910280F38146
:10150000E02DC6010995CE0107960E947204CE0116
:101510000D960E947204CE0101960E947204B2E000
:10152000EB0EF11CEFEF4E1A5E0A6E0A7E0AF3E52F
:101530004F1651046104710409F03BCE68EE73E06C
:1015400080E090E00E94F3002114310409F428CED9
:101550000E949801882309F423CE0E94000020CE27
:10156000BC86AB86B8018F8198850E94410D85CFDE
:10157000CE0107960E94600498CFCE0107960E9484
:101580006004B5CFBB274A3031F4992322F4BDE281
:10159000909581959F4F0C94CE0ABB27FB01552750
:1015A000AA27880F991FAA1FA41710F0A41B8395C0
:1015B0005051B9F7A05DAA3308F0A95DA193009737
:1015C00079F7B111B1931192CB010C94E70ADC01C8
:1015D000FC01672F71917723E1F7329704C07C916A
:1015E0006D9370836291AE17BF07C8F308952F9271
:1015F0003F924F925F926F927F928F929F92AF92A3
:10160000BF92CF92DF92EF92FF920F931F93CF93EF
:10161000DF93CDB7DEB7CA1BDB0B0FB6F894DEBF86
:101620000FBECDBF09942A88398848885F846E84AC
:101630007D848C849B84AA84B984C884DF80EE80F6
:10164000FD800C811B81AA81B981CE0FD11D0FB6FF
:10165000F894DEBF0FBECDBFED010895A1E21A2EB2
:10166000AA1BBB1BFD010DC0AA1FBB1FEE1FFF1F46
:10167000A217B307E407F50720F0A21BB30BE40B96
:10168000F50B661F771F881F991F1A9469F76095DD
:101690007095809590959B01AC01BD01CF01089597
:1016A000EE0FFF1F0590F491E02D09940F931F9307
:1016B000CF93DF938230910510F482E090E0E091C7
:1016C0003703F091380330E020E0B0E0A0E030973D
:1016D00099F42115310509F44AC0281B390B24302F
:1016E0003105D8F58A819B816115710589F1FB016E
:1016F00093838283FE0111C0408151810281138155
:1017000048175907E0F04817590799F4109761F006
:1017100012960C93129713961C933296CF01DF9179
:10172000CF911F910F9108950093370310933803C1
:10173000F4CF2115310551F04217530738F0A901B4
:10174000DB019A01BD01DF01F801C1CFEF01F9CF43
:101750009093380380933703CDCFFE01E20FF31F40
:10176000819391932250310939832883D7CF2091D7
:10177000350330913603232B41F42091020130913F
:1017800003013093360320933503209100013091FB
:1017900001012115310541F42DB73EB740910401F7
:1017A00050910501241B350BE0913503F091360370
:1017B000E217F307A0F42E1B3F0B2817390778F028
:1017C000AC014E5F5F4F2417350748F04E0F5F1F87
:1017D0005093360340933503819391939FCFF0E06C
:1017E000E0E09CCFCF93DF930097E9F0FC013297C4
:1017F00013821282A0913703B0913803ED0130E0DB
:1018000020E01097A1F420813181820F931F209155
:101810003503309136032817390709F061C0F0937A
:101820003603E0933503DF91CF910895EA01CE1797
:10183000DF07E8F54A815B819E0141155105B1F74B
:10184000E901FB83EA8349915991C40FD51FEC1735
:10185000FD0761F4808191810296840F951FE90153
:1018600099838883828193819B838A83F0E0E0E07F
:1018700012968D919C9113970097B9F52D913C91FB
:101880001197CD010296820F931F2091350330915D
:1018900036032817390739F6309751F51092380377
:1018A00010923703B0933603A0933503BCCFD38394
:1018B000C28340815181840F951FC817D90761F4F5
:1018C0004E5F5F4F88819981480F591F5183408334
:1018D0008A819B81938382832115310509F0B0CFE2
:1018E000F0933803E09337039ECFFD01DC01C0CFB6
:1018F00013821282D7CFB0E0A0E0E1E8FCE00C94C4
:10190000F90A8C01009751F4CB010E94560B8C010F
:10191000C801CDB7DEB7E0E10C94150BFC01E60F72
:10192000F71F9C0122503109E217F30708F49DC00C
:10193000D901CD91DC911197C617D70798F0C53022
:10194000D10530F3CE0104978617970708F3C61B1D
:10195000D70B2297C193D1936D937C93CF010E94B3
:10196000F20BD6CF5B01AC1ABD0A4C018C0E9D1E4A
:10197000A0913703B0913803512C412CF12CE12C6C
:10198000109731F5809135039091360388159905AC
:1019900009F05CC04616570608F058C08091000157
:1019A00090910101009741F48DB79EB740910401D9
:1019B00050910501841B950BE817F90708F055C0F5
:1019C000F0933603E0933503F90171836083A0CF70
:1019D0008D919C91119712966C90129713967C9012
:1019E0001397A815B90559F56C0142E0C40ED11C36
:1019F000CA14DB0420F1AC014A195B09DA01129622
:101A0000159780F06282738251834083D9016D9370
:101A10007C93E114F10471F0D7011396FC93EE93DB
:101A2000129776CF22968C0F9D1FF90191838083A8
:101A3000F301EFCFF0933803E093370369CF4816F3
:101A4000590608F42C017D01D3019ACFCB010E94E5
:101A5000560B7C01009749F0AE01B8010E94380D89
:101A6000C8010E94F20B870153CF10E000E050CF75
:101A7000FB01DC0102C001900D9241505040D8F7AB
:101A80000895FB01DC0101900D920020E1F708951B
:041A9000F894FFCFF8
:101A940000003903800000004000140054000000DE
:101AA4000000DB042E0108043B0200000000CE010C
:101AB4002E015B011B028C016A017E010000000003
:101AC400F202C5020804A2022501B202A3024F6376
:101AD4007570616461732F4C69767265730044613B
:101AE400646F7320726563656269646F7320646FE9
:101AF40020646973706F73697469766F203078003D
:101B04000D0A005175616E746964616465206465D1
:101B1400206269747320656D20616C746F3A2000D3
:101B24002D2D2D2D2D2D2D2D2D2D2D2D2D2D2D2DE1
:101B34002D2D2D2D2D2D2D2D2D2D2D2D2D00202018
:101B44002020202020202020202020202020002FA2
:021B540000008F
:00000001FF
